:100000000C9462000C948A000C948A000C948A0070
:100010000C948A000C948A000C948A000C945F055E
:100020000C948A000C948A000C948A000C94A3040B
:100030000C948A000C948A000C948A000C948A0018
:100040000C9459040C948A000C9427040C94010419
:100050000C948A000C948A000C948A000C948A00F8
:100060000C948A000C948A000000000023002600F3
:10007000290000000000240027002A0000000000E2
:10008000250028002B0004040404040404040202D4
:100090000202020203030303030301020408102007
:1000A0004080010204081020010204081020000012
:1000B0000008000201000003040700000000000027
:1000C00000001F0E11241FBECFEFD8E0DEBFCDBF52
:1000D00014E0A0E0B1E0EEEBF0E302C005900D9279
:1000E000AA3BB107D9F726E0AAEBB4E001C01D9204
:1000F000A538B207E1F710E0C2E6D0E004C02197CE
:10010000FE010E945718C136D107C9F70E94AC0EF4
:100110000C945D180C940000DC01ED91FC910190B1
:10012000F081E02D0994AF92BF92CF92DF92EF92CF
:10013000FF920F931F93CF93DF936C017B018B0191
:10014000040F151FEB015E01AE18BF08C017D107E1
:1001500059F06991D601ED91FC910190F081E02D6B
:10016000C6010995892B79F7C501DF91CF911F91C0
:100170000F91FF90EF90DF90CF90BF90AF900895D8
:10018000FC01538D448D252F30E0842F90E0821B9D
:10019000930B541710F0CF96089501970895FC0122
:1001A000918D828D981761F0A28DAE0FBF2FB11D7A
:1001B0005D968C91928D9F5F9F73928F90E00895D2
:1001C0008FEF9FEF0895FC01918D828D981731F08C
:1001D000828DE80FF11D858D90E008958FEF9FEFE0
:1001E0000895FC01918D228D892F90E0805C9F4FB6
:1001F000821B91098F73992708958AED94E00E94DC
:10020000F10021E0892B09F420E0822F089580E09D
:1002100090E0892B29F00E94FD0081110C940000D0
:100220000895FC01A48DA80FB92FB11DA35ABF4F8B
:100230002C91848D90E001968F739927848FA689E5
:10024000B7892C93A089B1898C91837080648C9339
:10025000938D848D981306C00288F389E02D8081E8
:100260008F7D80830895EF92FF920F931F93CF931A
:10027000DF93EC0181E0888F9B8D8C8D98131AC0E1
:10028000E889F989808185FF15C09FB7F894EE89C8
:10029000FF896083E889F989808183708064808325
:1002A0009FBF81E090E0DF91CF911F910F91FF9070
:1002B000EF900895F62E0B8D10E00F5F1F4F0F7318
:1002C0001127E02E8C8D8E110CC00FB607FCFACFD3
:1002D000E889F989808185FFF5CFCE010E9411015F
:1002E000F1CFEB8DEC0FFD2FF11DE35AFF4FF082A4
:1002F0009FB7F8940B8FEA89FB8980818062CFCF0A
:10030000CF93DF93EC01888D8823B9F0AA89BB894C
:10031000E889F9898C9185FD03C0808186FD0DC037
:100320000FB607FCF7CF8C9185FFF2CF808185FF58
:10033000EDCFCE010E941101E9CFDF91CF91089559
:10034000833081F028F4813099F08230A9F008954B
:100350008730A9F08830C9F08430B1F480918000F2
:100360008F7D03C0809180008F77809380000895F7
:1003700084B58F7784BD089584B58F7DFBCF809140
:10038000B0008F778093B00008958091B0008F7D8A
:10039000F9CF1F93CF93DF93282F30E0F901E25577
:1003A000FF4F8491F901E656FF4FD491F901EA57C6
:1003B000FF4FC491CC23A9F0162F81110E94A001F8
:1003C000EC2FF0E0EE0FFF1FE458FF4FA591B49122
:1003D0008FB7F894EC91111108C0D095DE23DC930F
:1003E0008FBFDF91CF911F910895DE2BF8CFCF9370
:1003F000DF9390E0FC01E656FF4F24918A579F4F10
:10040000FC0184918823D1F090E0880F991FFC01B2
:10041000EE58FF4FA591B491FC01E458FF4FC591F0
:10042000D49161110EC09FB7F8948C91E22FE095A2
:100430008E238C932881E223E8839FBFDF91CF91A5
:1004400008958FB7F894EC91E22BEC938FBFF6CF21
:100450003FB7F8948091C0049091C104A091C20468
:10046000B091C30426B5A89B05C02F3F19F0019693
:10047000A11DB11D3FBFBA2FA92F982F8827BC01FE
:10048000CD01620F711D811D911D42E0660F771F26
:10049000881F991F4A95D1F708958F929F92AF9226
:1004A000BF92CF92DF92EF92FF924B015C010E94CC
:1004B00028026B017C010E9428026C197D098E09BB
:1004C0009F09683E734081059105A8F321E0821AD7
:1004D0009108A108B10888EEC80E83E0D81EE11C7F
:1004E000F11C81149104A104B10429F7FF90EF904D
:1004F000DF90CF90BF90AF909F908F900895089518
:1005000090E080E00895CF93DF93EC0160E08E816E
:100510000E94C90161E08E810E94C90160E08E8164
:100520000E94C9018BE891E00197F1F7DF91CF912B
:100530000895CF92DF92EF92FF920F931F93CF9384
:10054000DF936C017C0187E0E80EF11CD0E0C0E095
:10055000062F10E0B8010C2E02C0759567950A941D
:10056000E2F76170F70181917F010E94C901219634
:10057000C430D10579F7C601DF91CF911F910F915A
:10058000FF90EF90DF90CF900C948302CF92DF9298
:10059000EF92FF920F931F93CF93DF93EC01F62E10
:1005A000642F8C810E94C9018D818F3F19F060E01A
:1005B0000E94C9010F2D10E08F8584FF25C06E01B8
:1005C00087E0C80ED11CF12CE12CB8010E2C02C022
:1005D000759567950A94E2F76170F60181916F0154
:1005E0000E94C901FFEFEF1AFF0A88E0E816F10444
:1005F00061F7CE01DF91CF911F910F91FF90EF90A6
:10060000DF90CF900C948302B80184E075956795D4
:100610008A95E1F7CE010E9499026F2DCE01DF91FC
:10062000CF911F910F91FF90EF90DF90CF900C949E
:10063000990240E0682F8AE696E00C94C60281E0B9
:100640000E9419038BE39FE10197F1F70895CF937F
:10065000DF93823029F4909179069860909379061F
:1006600080937D0610927E0680E480937F0680E171
:100670008093800680E58093810661E080916E061C
:100680000E94F70180916F068F3F19F061E00E9490
:10069000F70161E0809170060E94F701CAE6D6E09A
:1006A0009E012A5636408091790684FD0BC084E075
:1006B00090E021962817390744F461E08E810E946A
:1006C000F701EECF88E090E0F4CF8BE39DE0019757
:1006D000F1F760E080916E060E94C90160E08091B0
:1006E00070060E94C90180916F068F3F19F060E08B
:1006F0000E94C9018091790684FD34C063E08AE6D6
:1007000096E00E949902CBE4D6E4CE010197F1F77E
:1007100063E08AE696E00E9499022197F1F763E090
:100720008AE696E00E94990283E592E00197F1F74C
:1007300062E08AE696E00E949902809179068062E2
:100740000E94190384E080937A068CE00E941903CA
:100750000E941F0382E080937B0686E0DF91CF91A9
:100760000C94190380620E9419038BE496E40197AC
:10077000F1F78091790680620E94190383E592E087
:100780000197F1F78091790680620E941903D5CF15
:1007900090917D06691710F06FEF690FE62FF0E07A
:1007A000E659F94F9489890F80680C94190341E048
:1007B0000E94C60281E090E00895FB0101900020B4
:1007C000E9F73197AF01461B570BDC01ED91FC9126
:1007D0000280F381E02D0994CF93DF93BC018AED71
:1007E00094E00E94DD03EC0163E271E08AED94E0A5
:1007F0000E94DD038C0F9D1FDF91CF9108950C9413
:10080000DD031F920F920FB60F9211242F933F9387
:100810004F935F936F937F938F939F93AF93BF9308
:10082000EF93FF938AED94E00E941101FF91EF9105
:10083000BF91AF919F918F917F916F915F914F91F8
:100840003F912F910F900FBE0F901F9018951F9200
:100850000F920FB60F9211242F938F939F93EF93C4
:10086000FF93E091EA04F091EB048081E091F004C1
:10087000F091F10482FD1BC090818091F3048F5FA1
:100880008F732091F404821741F0E091F304F0E0BB
:10089000E652FB4F958F8093F304FF91EF919F9168
:1008A0008F912F910F900FBE0F901F901895808100
:1008B000F4CF1F920F920FB60F9211242F933F93F4
:1008C0008F939F93AF93BF938091BC049091BD048D
:1008D000A091BE04B091BF043091BB0423E0230F6C
:1008E0002D3758F50196A11DB11D2093BB048093AF
:1008F000BC049093BD04A093BE04B093BF04809148
:10090000C0049091C104A091C204B091C3040196A7
:10091000A11DB11D8093C0049093C104A093C20493
:10092000B093C304BF91AF919F918F913F912F914D
:100930000F900FBE0F901F90189526E8230F029678
:10094000A11DB11DD2CF1F920F920FB60F9211248D
:100950002F933F934F935F936F937F938F939F93C7
:10096000AF93BF93CF93DF93EF93FF938091BA043C
:10097000C0919B05D0E087FF24C0109285001092A3
:1009800084008091BA048F5F8093BA048091BA0486
:10099000082E000C990B8C179D0724F48091BA0443
:1009A0008C30C4F18091840090918500049680344D
:1009B0009C4908F47AC08091840090918500049647
:1009C00076C08091BA04082E000C990B8C179D07F5
:1009D000C4F6E091BA048E2FEE0F990BFC01EE0FD6
:1009E000FF1FE80FF91FE958FA4F808186FFC9CF32
:1009F000E091BA048E2FEE0F990BFC01EE0FFF1F52
:100A0000E80FF91FE958FA4F808160E08F730E9468
:100A1000C901B7CF2091840030918500E091BA04DC
:100A20008E2FEE0F990BFC01EE0FFF1FE80FF91F41
:100A3000E958FA4F81819281820F931F9093890028
:100A400080938800E091BA048E2FEE0F990BFC0181
:100A5000EE0FFF1FE80FF91FE958FA4F808186FF5C
:100A600011C0E091BA048E2FEE0F990BFC01EE0F2E
:100A7000FF1FE80FF91FE958FA4F808161E08F737B
:100A80000E94C901FF91EF91DF91CF91BF91AF918A
:100A90009F918F917F916F915F914F913F912F9196
:100AA0000F900FBE0F901F90189580E49CE99093D3
:100AB0008900809388008FEF8093BA04E3CF1F9260
:100AC0000F920FB60F9211242F933F934F935F9382
:100AD0006F937F938F939F93AF93BF93CF93DF9346
:100AE000EF93FF9320919C0530E0F901E255FF4F11
:100AF0008491F901E656FF4FD491F901EA57FF4F6F
:100B0000C491CC2379F081110E94A001EC2FF0E078
:100B1000EE0FFF1FE859FF4FA591B491EC91ED2323
:100B200081E009F480E020919F053091A0052F5FBE
:100B30003F4F3093A00520939F059091690694360E
:100B400018F095E090939D0590919D05933009F4E0
:100B50004CC0E0F4923011F190919E05992319F068
:100B600081116BC02D9AFF91EF91DF91CF91BF91D1
:100B7000AF919F918F917F916F915F914F913F9135
:100B80002F910F900FBE0F901F901895943009F47D
:100B900048C0953009F78111DFCF09C08111DCCF42
:100BA00020919F053091A0052436310528F410923C
:100BB000A00510929F05D0CF10926906E0916906BA
:100BC00091E09E0F90936906F0E020919F0530918F
:100BD000A005EE0FFF1FE456FA4F368325831092CF
:100BE000A00510929F0593E019C0813009F0B4CFA1
:100BF000E091690691E09E0F90936906F0E02091E4
:100C00009F053091A005EE0FFF1FE456FA4F368383
:100C100025831092A00510929F0594E090939D0566
:100C20009BCF882359F220919F053091A00525364E
:100C3000310508F491CF95E0F1CF2D9894CF8F92A4
:100C40009F92AF92BF92FF920F931F93CF93DF9328
:100C5000F09082062BE02F1508F44CC020918406FA
:100C600008E512E0021B110927FD1395000F111F63
:100C7000000F111F20918306C8E8D0E0C21BD109E4
:100C800027FDD395CC0FDD1FCC0FDD1F4E010D2EA0
:100C9000000CAA08BB089801012E000C440B550B50
:100CA000281939094A095B09DC010E948C1524EBDB
:100CB00030E040E050E00E946215820E931EA41EB8
:100CC000B51E8C169D062CF0E801801691060CF4DA
:100CD000E4012297CC0FDD1F2FB7F8948F2D90E001
:100CE000FC01EE0FFF1FE80FF91FE958FA4FD283FE
:100CF000C1832FBFDF91CF911F910F91FF90BF90C4
:100D0000AF909F908F900895CF92DF92EF92FF92D5
:100D1000CF93DF93EC01072E000C880B990B0E94F8
:100D2000E1166B017C0120E030E040E45FE30E94CB
:100D3000911720E030E048E452E40E9437160E9408
:100D4000A916C617D707D4F020E030E040EA5FE3E9
:100D5000C701B6010E94911720E030E048E452E458
:100D60000E94371620E030E040E85FE30E94C6159D
:100D70000E94A91621E06C177D070CF420E0822F59
:100D800090E0DF91CF91FF90EF90DF90CF900895AA
:100D90008F929F92AF92BF92CF92DF92EF92FF928B
:100DA0000F931F93CF93DF93FC0120813181E0915A
:100DB000D804F091D90401E010E02E173F070CF0A1
:100DC00043C0D901AA0FBB1FE091D604F091D7040C
:100DD000EA0FFB1FA080B18089010095109501707A
:100DE000112720FD23C02CE93FEFEA016B017C01B4
:100DF0004901840E951EB401C5010E948406892B09
:100E0000C1F48C0E9D1EB401C5010E948406892B7D
:100E100049F5BE01680D791DC5010E94840623E0D5
:100E200030E0892B41F40FEF1FEF0EC024E630E0D5
:100E3000DCCF21E030E0F6018081918101968217BC
:100E400093079CF491838083C801DF91CF911F9118
:100E50000F91FF90EF90DF90CF90BF90AF909F9059
:100E60008F90089522E030E0E6CF11821082F701E2
:100E7000808191810196E6CF2F923F924F925F92AF
:100E80006F927F928F929F92AF92BF92CF92DF929A
:100E9000EF92FF920F931F93CF93DF9300D000D078
:100EA00000D0CDB7DEB781EA95E09093D704809368
:100EB000D6048091690690E09093D9048093D80479
:100EC00080919D05853009F0B6C58091A30590916C
:100ED000A405885891098D35910508F054C080917A
:100EE0006906843021F58091A5059091A60580972B
:100EF0004797E8F48091A7059091A805099709976D
:100F0000B0F41092D5041092D4048FEF9FEFDC015F
:100F10008093D0049093D104A093D204B093D304CF
:100F200081E090E09093CD048093CC0477C38091CE
:100F30006906843440F18091A5059091A6058254FC
:100F400091098E9700F530E020E080E090E0DC0130
:100F5000F901E955FA4F4081518149505109493011
:100F6000510588F4F901E755FA4F40815181475105
:100F700051094231510528F14081518146505109B2
:100F80004730510580F1809169068A3108F460C0CC
:100F90008091A1059091A205843F914048F510925F
:100FA000D5041092D4048FEF9FEFDC018093D0041E
:100FB0009093D104A093D204B093D30489E090E03D
:100FC000B1CF880F991FAA1FBB1F81602C5F3F4FB5
:100FD0002038310509F0BCCF20E230E03093D50451
:100FE0002093D40495CF880F991FAA1FBB1FEECF63
:100FF0008091A3059091A40585974B9748F5ECE95E
:10100000F5E082E090E040E050E0BA01A09169068E
:101010009C012F5F3F4FA217130609F00CF4F6C096
:1010200021853285275031092730310508F0EEC07F
:1010300023853485235131092F30310508F4D9C077
:10104000238534852A5031092930310508F4D9C067
:10105000809169068A3108F43FC08091A105909182
:10106000A2058032934008F49ACF8091A305909115
:10107000A405C697869780F58091A5059091A60551
:10108000C697869748F5ECE9F5E083E090E040E00C
:1010900050E0BA01A09169069C012F5F3F4FA21753
:1010A000130609F00CF4D8C0238534852C5031097F
:1010B0002B30310508F0D0C0258536852552310901
:1010C0002B31310508F4BBC0258536852C503109FC
:1010D0002A30310508F4BBC080916906823238F1AC
:1010E0008091A3059091A4050697079700F5ECE978
:1010F000F5E082E090E040E050E0BA01DC011196BA
:10110000209169062A171B0609F00CF4D1C021852D
:1011100032852E5131092731310508F4B4C02185BB
:1011200032852C5031092B30310508F4BBC0809139
:1011300069068D3008F40AC181E090E09C838B83BE
:101140001A82198249E753E0BE016F5F7F4FCE01DB
:1011500003960E94C806892B09F0F8C049E753E0BE
:10116000BE016F5F7F4FCE0103960E94C8068C01BF
:10117000019709F0EBC049E753E0BE016F5F7F4F75
:10118000CE0103960E94C8065C01892B09F0DEC0DF
:10119000C12CD12C7601209169068B819C81281766
:1011A000190609F00CF4A6C049E753E0BE016F5FD1
:1011B0007F4FCE0103960E94C8064C0149E753E0D9
:1011C000BE016F5F7F4FCE0103960E94C806B1E05B
:1011D0008B16910409F085C0892B09F0B7C0CC0C9F
:1011E000DD1CEE1CFF1C6894C0F8EFEFAE1ABE0ABF
:1011F000D2CF440F551F661F771F41600296349669
:1012000005CF440F551F661F771FF8CF019795959F
:1012100087959093D5048093D4040C972CF4109266
:10122000D5041092D40414CF4093D0045093D10429
:101230006093D2047093D30482E090E073CE440FA5
:10124000551F661F771F41600296349623CF440FC7
:10125000551F661F771FF8CF019795958795909337
:10126000D5048093D4040C972CF41092D5041092DA
:10127000D40432CF4093D0045093D1046093D2046D
:101280007093D3049BCE440F551F661F771F416098
:10129000238534853496235031092530310538F4BF
:1012A00002962CCF440F551F661F771FF1CFCD013B
:1012B0000197959587959093D5048093D404409792
:1012C0002CF41092D5041092D40431CF4093D00462
:1012D0005093D1046093D2047093D3048AE090E0D9
:1012E00021CE892899F5019789F5CC0CDD1CEE1CDF
:1012F000FF1C7BCFB092D504A092D404C092D0043E
:10130000D092D104E092D204F092D30483E090E032
:101310009093CD048093CC04C80126960FB6F89420
:10132000DEBF0FBECDBFDF91CF911F910F91FF9018
:10133000EF90DF90CF90BF90AF909F908F907F9075
:101340006F905F904F903F902F9008958091D804B8
:101350009091D904181619060CF087C0E091D604B4
:10136000F091D70481E090E09C838B83828193810C
:1013700089974E9708F079C082E090E09C838B8338
:10138000848195810B970A9708F06FC083E090E005
:101390009C838B831A8219824CEB51E0BE016F5FF4
:1013A0007F4FCE0103960E94C8067C01892B09F06D
:1013B0005CC04CEB51E0BE016F5F7F4FCE010396E6
:1013C0000E94C8068C01019709F04FC0412C512C96
:1013D00032012091D8043091D9048B819C818217ED
:1013E00093070CF0E8C04CEB51E0BE016F5F7F4FFC
:1013F000CE0103960E94C8065C01F3E0EF16F104EB
:1014000041F14CEB51E0BE016F5F7F4FCE0103967F
:101410000E94C8066C0123E0E216F10461F44CEB73
:1014200051E0BE016F5F7F4FCE0103960E94C80658
:10143000C816D906D1F4A114B10409F4AEC0AA9417
:10144000AB2899F4CD2889F4440C551C661C771CF4
:10145000AEC04CEB51E0BE016F5F7F4FCE010396F3
:101460000E94C806A816B90661F2E091D604F09170
:10147000D70482819381C697869778F58481958178
:101480004B97459750F5DF0116967F0126ECE20E4B
:10149000F11C20E030E040E050E060E070E080E0EF
:1014A00090E00D911C911197095011090830110518
:1014B000A0F412960D911C911397015111090D3052
:1014C000110508F487C012960D911C9113970450D2
:1014D00011090530110508F4A4C082819381895750
:1014E00091098335910568F580916906893348F142
:1014F00084819581CA97899720F59F012A5F3F4F84
:10150000C12CD12C760143E050E0D9016D917C9142
:1015100011976A5071096930710598F412966D91AE
:101520007C911397665171096131710508F47DC092
:1015300012966D917C91665071096730710508F4BF
:10154000A3C080916906823209F0A3C08281938191
:101550000A97099708F09DC0A0916906B0E0A150D4
:10156000B048AA0FBB1FAE0FBF1F8D919C910A9769
:10157000099708F08EC01092D5041092D4048FEF12
:101580009FEFDC018093D0049093D104A093D20408
:10159000B093D30488E090E0C5CCCA94CD2809F07C
:1015A00064CF440C551C661C771C689440F8AFEF60
:1015B000EA1AFA0A0ECFF092D504E092D4044092CF
:1015C000D0045092D1046092D2047092D30484E08B
:1015D00090E09ECE01E00E94211821601496AE1585
:1015E000BF0509F05ECF2093D0043093D10440931F
:1015F000D2045093D30400E20E943C182093CE04FE
:101600003093CF0487E090E09093CD048093CC0496
:1016100080E390E09093D5048093D40401E010E03F
:101620007BCE01E00E942118D9CFD701C601880FD7
:10163000991FAA1FBB1F6C017D016894C0F84E5F03
:101640005F4F2C5F3F4F4B33510509F05ECF9F0139
:101650002A583F4FD9012D913C912A503109293008
:10166000310508F06ECF2CE130E03093D5042093A3
:10167000D404C092D004D092D104E092D204F0926B
:10168000D3048CE090E04ECCCC0CDD1CEE1CFF1C97
:10169000D6CF82819381895791098335910560F571
:1016A00080916906813240F184819581CA9789973A
:1016B00018F59F012A5F3F4FC12CD12C760143E0E2
:1016C00050E0D9016D917C9111976A507109693090
:1016D000710590F412966D917C9113976651710982
:1016E0006131710598F112966D917C916650710986
:1016F0006730710508F457C0828193818C54910939
:10170000C59708F084C080916906843009F050C004
:10171000848195818097479708F04AC08681978198
:101720000997099708F044C01092D5041092D40488
:101730008FEF9FEFDC018093D0049093D104A093AE
:10174000D204B093D3048BE090E0ECCBD701C60178
:10175000880F991FAA1FBB1F6C017D016894C0F8F8
:101760004E5F5F4F2C5F3F4F4332510509F0A9CFC9
:101770009F012A5B3F4FD9012D913C912A5031099D
:101780002930310508F0B8CF20E130E03093D5049E
:101790002093D404C092D004D092D104E092D20419
:1017A000F092D304F7CECC0CDD1CEE1CFF1CD8CF7E
:1017B00080916906843458F1848195818954910916
:1017C000C39728F59F012A5F3F4FBF016A577F4F9C
:1017D000C12CD12C7601D9014D915C9111974950C2
:1017E00051094930510598F412964D915C91139727
:1017F000465151094131510508F4C0C012964D912E
:101800005C91465051094730510508F4D6C080918B
:1018100069068634C0F1828193810C970B9798F505
:10182000848195810997099770F5868197818C97B6
:101830004F9748F58085918589974D9720F59F01B1
:10184000265F3F4FC12CD12C760145E050E0D901F5
:101850006D917C9111976C5071096B30710598F402
:1018600012966D917C9113976E51710967317105D4
:1018700008F4A8C012966D917C9169507109693085
:10188000710508F4CEC08091D8049091D9049E834C
:101890008D8306970CF4CAC08F010E5F1F4F85EC35
:1018A000C82E8DE9D82E8CE1E82E81E8F82E93E041
:1018B000292E312CD80114966D917C911597AD90FD
:1018C000BC9090E080E00E94DF162B013C01B50146
:1018D00090E080E00E94DF164B015C012DEC3CECB7
:1018E0004CE45FE30E9491179B01AC01C301B2017C
:1018F0000E943216F0E0E0E087FD14C02DEC3CECD5
:101900004CE45FE3C301B2010E9491179B01AC015B
:10191000C501B4010E943216E2E0F0E087FD02C08A
:10192000E1E0F0E0A701960163E971E080E091E079
:101930000E94FE176F01FF0FEE08FF08C626D7268C
:10194000E826F926BFEF2B1A3B0A0E5F1F4FED81E9
:10195000FE81E215F30509F0ADCFC092D004D0921C
:10196000D104E092D204F092D30480E290E090930C
:10197000D5048093D4048FEF9FEFD4CAD701C6015A
:10198000880F991FAA1FBB1F6C017D016894C0F8C6
:101990002C5F3F4F2617370709F01DCF20E230E0BC
:1019A0003093D5042093D404C092D004D092D104B3
:1019B000E092D204F092D304C6CECC0CDD1CEE1C17
:1019C000FF1CE6CFD701C601880F991FAA1FBB1FB6
:1019D0006C017D016894C0F84E5F5F4F2C5F3F4FF4
:1019E0004534510509F033CF9F0126573F4FD901A8
:1019F0002D913C912C5031092B30310508F043CF0B
:101A000020E230E03093D5042093D404C092D00477
:101A1000D092D104E092D204F092D3048DE090E011
:101A200081CACC0CDD1CEE1CFF1CD6CF82E080935B
:101A30009D051092690610E000E06ECC1F93CF93D5
:101A4000DF93182FEB0161E00E94F701209739F432
:101A500060E0812FDF91CF911F910C94C901CF3F9E
:101A6000D10511F461E0F5CFE12FF0E0E255FF4F31
:101A7000E491E33031F140F4E130B1F0E230E1F0F3
:101A8000C038D1057CF7E4CFE73029F1E83059F1CF
:101A9000E430B1F780918000806280938000D09321
:101AA0008B00C0938A0004C084B5806884BDC7BD24
:101AB000DF91CF911F91089584B5806284BDC8BD28
:101AC000F7CF80918000806880938000D093890058
:101AD000C0938800EDCF8091B00080688093B00003
:101AE000C093B300E5CF8091B00080628093B000D6
:101AF000C093B400DDCF8E50806480937C008091D1
:101B00007A00806480937A0080917A0086FDFCCF11
:101B1000809178009091790008958F929F92AF9272
:101B2000BF92EF92FF920F931F93CF93DF93CDB7A6
:101B3000DEB7A1970FB6F894DEBF0FBECDBF7C0114
:101B4000FA01CB0119A2223008F42AE08E010F5DC0
:101B50001F4F822E912CB12CA12CBF01A501940105
:101B60000E949415F901CA016A300CF5605DD80134
:101B70006E938D01232B242B252B79F790E080E0A9
:101B8000109721F0BD01C7010E94DD03A1960FB699
:101B9000F894DEBF0FBECDBFDF91CF911F910F91A3
:101BA000FF90EF90BF90AF909F908F900895695CE9
:101BB000DECFCF92DF92EF92FF920F931F93CF93DE
:101BC000DF936B01770FEE08FF08F7FE1BC0EC01F7
:101BD0006DE20E948C008C0144275527BA014C19F4
:101BE0005D096E097F092AE0CE010E948D0D800FEC
:101BF000911FDF91CF911F910F91FF90EF90DF9098
:101C0000CF9008952AE0B701A601DF91CF911F91EF
:101C10000F91FF90EF90DF90CF900C948D0D0E946C
:101C20001F0360E080E00E94C80366E271E08AE67C
:101C300096E00E94FF0361E080E00C94C8031092DC
:101C4000DD041092DC0488EE93E0A0E0B0E0809325
:101C5000DE049093DF04A093E004B093E10489E0F4
:101C600091E09093DB048093DA0485EC90E090930C
:101C7000E7048093E60484EC90E09093E904809379
:101C8000E80480EC90E09093EB048093EA0481EC0C
:101C900090E09093ED048093EC0482EC90E09093BC
:101CA000EF048093EE0486EC90E09093F10480932F
:101CB000F0041092F3041092F4041092F5041092C0
:101CC000F60482E080939C0510929E0580919B050E
:101CD0008C30F0F591E0980F90939B0580938206ED
:101CE00090E0FC01EE0FFF1FE80FF91FE958FA4FD3
:101CF00088EB9BE09283818310926D0610926C06B4
:101D00008BE191E090936B0680936A0688E0809364
:101D10006E068FEF80936F0689E0809370068AE0ED
:101D2000809371068BE0809372068CE0809373063B
:101D30008DE08093740610927506109276061092CC
:101D40007706109278061092790681E00C942703AA
:101D50008FEF80938206D0CF789484B5826084BD63
:101D600084B5816084BD85B5826085BD85B581609F
:101D700085BD80916E00816080936E00109281001D
:101D800080918100826080938100809181008160D8
:101D90008093810080918000816080938000809199
:101DA000B10084608093B1008091B0008160809325
:101DB000B00080917A00846080937A0080917A00EC
:101DC000826080937A0080917A00816080937A00AB
:101DD00080917A00806880937A001092C100E0912F
:101DE000EA04F091EB0482E08083E091E604F09154
:101DF000E7041082E091E804F091E9049FEC9083FD
:101E00001092F204E091EE04F091EF0496E09083DA
:101E1000E091EC04F091ED04908190619083E09169
:101E2000EC04F091ED04908198609083E091EC04D3
:101E3000F091ED04908190689083E091EC04F09132
:101E4000ED0490819F7D9083F8948093B0008093FF
:101E5000B10094E69093B3001092B20080937000AA
:101E6000789480939D051092690680919C0560E0AE
:101E70000E94F701809182068C3008F051C061E029
:101E800083E00E94F70180918206282F30E0F9015B
:101E9000EE0FFF1FE20FF31FE958FA4F9081907C7D
:101EA0009360908310928306109284062CE0622F38
:101EB0000E940E18829FB001112430E020E0AB0197
:101EC000420F531FFA01EE0FFF1FE40FF51FE958F1
:101ED000FA4F908196FD16C02F5F3F4F2C30310591
:101EE00071F781110FC01092800082E08093810011
:101EF0001092850010928400B19A80916F008260E8
:101F000080936F00E09182068E2F90E0FC01EE0F2F
:101F1000FF1FE80FF91FE958FA4F80818064808322
:101F200061E085E00E94F70160E08FE00E94F70128
:101F300061E086E00E94F70160E080E10E94F70125
:101F400082E00E94270364EF71E080E090E00E944D
:101F50004D0286E391E00E94EC0360E084E00E9481
:101F6000C80366E371E08AE696E00E94FF038EE311
:101F700091E00E94EC0361E081E00E94C8036EE3FF
:101F800071E08AE696E00E94FF0360ED77E080E072
:101F900090E00E944D020E941F03CC24CA9483E06B
:101FA000D82EE12CF12C00E010E0D2E0C0E310923A
:101FB000CB041092CA0468EE73E080E090E00E94C7
:101FC0004D028DE491E00E94EC0360E080E00E940D
:101FD000C8036DE471E08AE696E00E94FF038AED93
:101FE00094E00E94F100892BD1F38AED94E00E94E5
:101FF000CF00B82E8093040161E080E00E94C80306
:102000006B2D8AE696E00E948C0064E670E080E02A
:1020100090E00E944D0261E080E00E94C8036EE5FE
:1020200071E08AE696E00E94FF038091CA049091D5
:10203000CB0401969093CB048093CA048AED94E07C
:102040000E94F100892BD1F38AED94E00E94CF0029
:10205000B82E8093030161E081E00E94C8036B2DDC
:102060008AE696E00E948C0064E670E080E090E0F2
:102070000E944D0261E081E00E94C8036EE571E0BC
:102080008AE696E00E94FF038091CA049091CB04F7
:1020900001969093CB048093CA048AED94E00E9449
:1020A000F100892BD1F38AED94E00E94CF00B82E85
:1020B0008093020161E082E00E94C8036B2D8AE6F2
:1020C00096E00E948C0064E670E080E090E00E9460
:1020D0004D0261E082E00E94C8036EE571E08AE68D
:1020E00096E00E94FF038091CA049091CB04019670
:1020F0009093CB048093CA048AED94E00E94F1008F
:10210000892BD1F38AED94E00E94CF00B82E809302
:10211000010161E083E00E94C8036B2D8AE696E02E
:102120000E948C0064E670E080E090E00E944D0226
:1021300061E083E00E94C8036EE571E08AE696E004
:102140000E94FF0364E670E080E090E00E944D0290
:102150008091CA049091CB0401969093CB04809314
:10216000CA04049709F027C480910401813309F05F
:1021700000C480910301823309F0FBC38091020106
:10218000833309F0F6C380910101843309F0F1C370
:102190000E941F0360E080E00E94C80360E671E0D7
:1021A0008AE696E00E94FF0380E691E00E94EC033D
:1021B00060ED77E080E090E00E944D020E941F03F6
:1021C00060E080E00E94C80361E771E08AE696E083
:1021D0000E94FF0361E080E00E94C80369E871E0AB
:1021E0008AE696E00E94FF038DE791E00E94EC03EF
:1021F00060ED77E080E090E00E944D020E941F03B6
:1022000060E080E00E94C80364E971E08AE696E03D
:102210000E94FF0384E991E00E94EC0361E080E00A
:102220000E94C80363EA71E08AE696E00E94FF0319
:1022300083EA91E00E94EC038AED94E00E94F100B1
:10224000892BD1F38AED94E00E94CF00B82E8093C1
:1022500000010E941F0321E3B21215C260E080E07A
:102260000E94C80364EB71E08AE696E00E94FF03D7
:1022700061E080E00E94C80363ED71E08AE696E0C9
:102280000E94FF0384EC91E00E94EC0360ED77E094
:1022900080E090E00E944D020E941F0360E080E019
:1022A0000E94C80366E271E08AE696E00E94FF039E
:1022B0008FED91E00E94EC0360ED77E080E090E02C
:1022C0000E944D028DEF91E00E94EC0386E192E0C6
:1022D0000E94EC038FE292E00E94EC0384E492E01F
:1022E0000E94EC038AE592E00E94EC0386E792E00C
:1022F0000E94EC0389E892E00E94EC038DE992E0F1
:102300000E94EC0387EB92E00E94EC0383ED92E0E5
:102310000E94EC038AED94E00E94F100892BD1F336
:102320008AED94E00E94CF008033B9F484EB90E012
:102330000E941F0682EF92E00E94EC030E940F0EA3
:1023400062EF72E08AE696E00E94FF0368EE73E0B7
:1023500080E090E00E944D02DDCF813369F490E08F
:1023600080E00E941F068CEF92E00E94EC030E9426
:102370000F0E67E073E0E6CF823369F461E085E039
:102380000E94C90183E193E00E94EC030E940F0EBA
:1023900063E173E0D7CF833369F460E085E00E94A6
:1023A000C9018AE193E00E94EC030E940F0E6AE1EA
:1023B00073E0C8CF843339F58FE00E947B0D5C0158
:1023C00068EC70E080E090E00E944D022FEF30E07A
:1023D000D5010E941A18A70196010E9462156FEF9D
:1023E00070E0621B730B7093C7046093C60485E0B2
:1023F0000E941E0D82E293E00E94EC030E940F0EE9
:1024000062E273E09FCF853369F461E086E00E9469
:10241000C9018BE293E00E94EC030E940F0E6BE275
:1024200073E090CF863369F460E086E00E94C901D2
:1024300082E393E00E94EC030E940F0E62E373E0DC
:1024400081CF873309F077C080E10E947B0DBC010A
:10245000990F880B990B0E94E1162AE038E240EAB6
:102460005BE30E9491172AE037ED43E25CE30E94B0
:1024700037160E94A9167093C5046093C40464EFD4
:1024800071E080E090E00E944D026AE373E08AED23
:1024900094E00E94FF038090C4049090C504092C2E
:1024A000000CAA08BB082AE0B501A401B7FE0DC0C4
:1024B0006DE28AED94E00E948C0044275527BA0112
:1024C000481959096A097B092AE08AED94E00E94BB
:1024D0008D0D63E271E08AED94E00E94DD0380914E
:1024E000C4049091C50470E060E0883191053CF02F
:1024F00048976DE770E0039710F06FEF70E086E0AB
:102500000E941E0D89E493E00E94EC030E940F0ECE
:1025100069E473E08AE696E00E94FF0361E089E0E7
:102520000E94C8036091C4047091C5048AE696E0D5
:102530000E94D90D0BCF883309F058C083E593E092
:102540000E94EC030E940F0E63E573E08AE696E0BA
:102550000E94FF0368EE73E080E090E00E944D026D
:102560000E941F03C0930401C0930301C0930201A2
:10257000C09301018091C8049091C90481309105F4
:1025800009F028C20E941F0368EE73E080E090E02B
:102590000E944D0260E080E00E94C80366E374E0A0
:1025A0008AE696E00E94FF0361E080E00E94C80393
:1025B0006CE474E08AE696E00E94FF0381E494E014
:1025C0000E94EC0360ED77E080E090E00E944D0215
:1025D0000E941F030115110509F4E9CC0E94FD00BA
:1025E000882309F4E4CC0E940000E1CC893309F08F
:1025F00047C081E693E00E94EC030E940F0E66E75D
:1026000073E08AE696E00E94FF0360ED77E080E0E9
:1026100090E00E944D020E941F0360E080E00E9453
:10262000C80364E873E08AE696E00E94FF0361E075
:1026300080E00E94C8036FE873E08AE696E00E949B
:10264000FF038DE993E00E94EC0368EE73E080E005
:1026500090E00E944D0280EB93E00E94EC0360ED5D
:1026600077E080E090E00E944D028BED93E00E94C5
:10267000EC0360ED77E080E090E00E944D02FFCF38
:1026800083EE93E045CE82E3B81262C160E080E061
:102690000E94C80364EB71E08AE696E00E94FF03A3
:1026A00061E080E00E94C80363EF73E08AE696E091
:1026B0000E94FF0360ED77E080E090E00E944D0211
:1026C0000E941F0360E080E00E94C80366E271E0A0
:1026D0008AE696E00E94FF038091D0049091D10495
:1026E000A091D204B091D3048D399246AF4FB10579
:1026F00079F40E943C07892B21F0D0939D0510921C
:1027000069066AEF70E080E090E00E944D02E4CF3D
:102710000E943C07892BA9F38091D0049091D104A9
:10272000A091D204B091D3048F3420EB92072FEF05
:10273000A207B10569F484EB90E00E941F060E9495
:102740000F0E62EF72E08AE696E00E94FF03D5CF9B
:102750008F3C20E392072FEFA207B10549F490E0E8
:1027600080E00E941F060E940F0E67E073E0EBCF2F
:10277000873E28E192072FEFA207B10549F461E0F7
:1027800085E00E94C9010E940F0E63E173E0DBCF78
:1027900085382AE792072FEFA207B10549F460E0D8
:1027A00085E00E94C9010E940F0E6AE173E0CBCF61
:1027B0008F3E20E192072FEFA207B10519F58FE0B8
:1027C0000E947B0D5C0168EC70E080E090E00E946C
:1027D0004D022FEF30E0D5010E941A18A701960193
:1027E0000E9462156FEF70E0621B730B7093C70459
:1027F0006093C60485E00E941E0D0E940F0E62E2E7
:1028000073E0A1CF873C28E392072FEFA207B10521
:1028100049F461E086E00E94C9010E940F0E6BE25C
:1028200073E091CF853A2AE592072FEFA207B10511
:1028300049F460E086E00E94C9010E940F0E62E345
:1028400073E081CF8D3B22E492072FEFA207B10501
:1028500009F04BC080E10E947B0DBC01990F880BF1
:10286000990B0E94E1162AE038E240EA5BE30E94FD
:1028700091172AE037ED43E25CE30E9437160E948D
:10288000A9162B017093C5046093C40464EF71E032
:1028900080E090E00E944D0270E060E088E1481620
:1028A00051045CF028E1421A51086DE770E083E0C2
:1028B0004816510410F06FEF70E086E00E941E0D84
:1028C0000E940F0E6FEF73E08AE696E00E94FF030E
:1028D00061E089E00E94C8036091C4047091C5045E
:1028E0008AE696E00E94D90D08CF8D3922E692073C
:1028F0002FEFA207B10509F425CE8D35924AAF4FCF
:10290000B10509F0FACE0E940F0E66E773E08AE681
:1029100096E00E94FF0360ED77E080E090E00E9487
:102920004D020E941F0360E080E00E94C80364E83B
:1029300073E08AE696E00E94FF0361E080E00E9477
:10294000C8036FE873E08AE696E00E94FF03FFCFBA
:102950000E941F0388E094E00E94EC0360E080E0A6
:102960000E94C80368E074E08AE696E00E94FF03D4
:1029700045CC0E941F0360E080E00E94C80368E12C
:1029800074E08AE696E00E94FF0388E194E00E94EA
:10299000EC0360ED77E080E090E00E944D020E9441
:1029A0001F038091C8049091C90401969093C904B3
:1029B0008093C804D7CD0E941F0360E080E00E948E
:1029C000C80368E174E08AE696E00E94FF0387E2AC
:1029D00094E0DDCF82309105F9F40E941F0368EE88
:1029E00073E080E090E00E944D0260E080E00E9491
:1029F000C8036AE574E08AE696E00E94FF0361E09E
:102A000080E00E94C80360E774E08AE696E00E94D6
:102A1000FF0385E694E0D4CD039709F0DBCD0E9457
:102A20001F0368EE73E080E090E00E944D0260E0DA
:102A300080E00E94C8036DE774E08AE696E00E9499
:102A4000FF0361E080E00E94C80365E974E08AE664
:102A500096E00E94FF0389E894E00E94EC0360ED99
:102A600077E080E090E00E944D020E941F0360E04A
:102A700080E00E94C80363EA74E08AE696E00E9460
:102A8000FF0383EA94E00E94EC0360ED77E080E0CE
:102A900090E00E944D0261E080E00E94C80360EB7C
:102AA00074E08AE696E00E94FF0380EB94E00E94C7
:102AB000EC0360ED77E080E090E00E944D020E9420
:102AC0001F03FFCF052E97FB1EF400940E9479157B
:102AD00057FD07D00E94941507FC03D04EF40C94C8
:102AE000791550954095309521953F4F4F4F5F4F49
:102AF000089590958095709561957F4F8F4F9F4F6A
:102B000008950E94B615A59F900DB49F900DA49FA7
:102B1000800D911D11240895B7FF0C9481150E941A
:102B20008115821B930B0895A1E21A2EAA1BBB1BD1
:102B3000FD010DC0AA1FBB1FEE1FFF1FA217B30789
:102B4000E407F50720F0A21BB30BE40BF50B661F9F
:102B5000771F881F991F1A9469F760957095809563
:102B600090959B01AC01BD01CF010895A29FB001DA
:102B7000B39FC001A39F700D811D1124911DB29FB1
:102B8000700D811D1124911D08955058BB27AA274F
:102B90000E94DD150C9457170E94491738F00E94C7
:102BA000501720F039F49F3F19F426F40C9446177F
:102BB0000EF4E095E7FB0C944017E92F0E9468178C
:102BC00058F3BA17620773078407950720F079F462
:102BD000A6F50C948A170EF4E0950B2EBA2FA02DB3
:102BE0000B01B90190010C01CA01A0011124FF27BA
:102BF000591B99F0593F50F4503E68F11A16F040B5
:102C0000A22F232F342F4427585FF3CF46953795B3
:102C10002795A795F0405395C9F77EF41F16BA0B78
:102C2000620B730B840BBAF09150A1F0FF0FBB1F26
:102C3000661F771F881FC2F70EC0BA0F621F731F6F
:102C4000841F48F4879577956795B795F7959E3FCC
:102C500008F0B0CF9395880F08F09927EE0F97955D
:102C6000879508950E941C1708F481E008950E943A
:102C70004B160C9457170E94501758F00E94491792
:102C800040F029F45F3F29F00C94401751110C9447
:102C90008B170C9446170E94681768F39923B1F3B9
:102CA000552391F3951B550BBB27AA276217730772
:102CB000840738F09F5F5F4F220F331F441FAA1F06
:102CC000A9F335D00E2E3AF0E0E832D091505040C2
:102CD000E695001CCAF72BD0FE2F29D0660F771F70
:102CE000881FBB1F261737074807AB07B0E809F056
:102CF000BB0B802DBF01FF2793585F4F3AF09E3FDB
:102D0000510578F00C9440170C948B175F3FE4F357
:102D1000983ED4F3869577956795B795F7959F5F1D
:102D2000C9F7880F911D9695879597F90895E1E069
:102D3000660F771F881FBB1F621773078407BA07C8
:102D400020F0621B730B840BBA0BEE1F88F7E09523
:102D500008950E94B0166894B1110C948B170895D1
:102D60000E94701788F09F5798F0B92F9927B75194
:102D7000B0F0E1F0660F771F881F991F1AF0BA951F
:102D8000C9F714C0B13091F00E948A17B1E00895DC
:102D90000C948A17672F782F8827B85F39F0B93FCE
:102DA000CCF3869577956795B395D9F73EF49095D2
:102DB0008095709561957F4F8F4F9F4F0895E89450
:102DC00009C097FB3EF490958095709561957F4F73
:102DD0008F4F9F4F9923A9F0F92F96E9BB27939521
:102DE000F695879577956795B795F111F8CFFAF431
:102DF000BB0F11F460FF1BC06F5F7F4F8F4F9F4F62
:102E000016C0882311F096E911C0772321F09EE8BF
:102E1000872F762F05C0662371F096E8862F70E025
:102E200060E02AF09A95660F771F881FDAF7880FFF
:102E30009695879597F90895990F0008550FAA0B55
:102E4000E0E8FEEF16161706E807F907C0F01216BD
:102E50001306E407F50798F0621B730B840B950BC0
:102E600039F40A2661F0232B242B252B21F4089515
:102E70000A2609F4A140A6958FEF811D811D0895B2
:102E800097F99F6780E870E060E008959FEF80EC1D
:102E9000089500240A9416161706180609060895C0
:102EA00000240A9412161306140605060895092E26
:102EB0000394000C11F4882352F0BB0F40F4BF2B95
:102EC00011F460FF04C06F5F7F4F8F4F9F4F0895D5
:102ED00057FD9058440F551F59F05F3F71F04795CB
:102EE000880F97FB991F61F09F3F79F087950895B0
:102EF000121613061406551FF2CF4695F1DF08C0CF
:102F0000161617061806991FF1CF869571056105EB
:102F100008940895E894BB2766277727CB0197F993
:102F200008950E94A4170C9457170E94491738F06F
:102F30000E94501720F0952311F00C9440170C9428
:102F4000461711240C948B170E94681770F3959FF5
:102F5000C1F3950F50E0551F629FF001729FBB2790
:102F6000F00DB11D639FAA27F00DB11DAA1F649F2C
:102F70006627B00DA11D661F829F2227B00DA11DDF
:102F8000621F739FB00DA11D621F839FA00D611D65
:102F9000221F749F3327A00D611D231F849F600D86
:102FA000211D822F762F6A2F11249F5750409AF0AF
:102FB000F1F088234AF0EE0FFF1FBB1F661F771F3B
:102FC000881F91505040A9F79E3F510580F00C9406
:102FD00040170C948B175F3FE4F3983ED4F386952B
:102FE00077956795B795F795E7959F5FC1F7FE2BA6
:102FF000880F911D9695879597F90895DB018F931A
:103000009F930E948115BF91AF91A29F800D911D4A
:10301000A39F900DB29F900D11240895991B79E004
:1030200004C0991F961708F0961B881F7A95C9F758
:10303000809508950E94B615B7FF0895821B930BE3
:103040000895002E083090F0982F872F762F652F47
:10305000542F432F322F22270850F4CF220F331F33
:10306000441F551F661F771F881F991F0A95B2F7C7
:10307000002D089597FD1094002E083098F0085008
:10308000232F342F452F562F672F782F892F912DDF
:10309000F4CF1594979587957795679557954795AC
:1030A000379527950A95AAF71124002D0895EE0F5C
:0E30B000FF1F0590F491E02D0994F894FFCFD6
:1030BE0030303030300000000033019300C000800B
:1030CE0001F100CF00E30000000000D70393008061
:1030DE00027F020D0A0043686F6F736520616E20D8
:1030EE006F726465720057656C636F6D65004D613C
:1030FE007920692068656C7020796F7500456E7453
:10310E00657220796F757220636F64653A002A00CC
:10311E00436F72726563742070617373776F72643C
:10312E000043686F6F736520796F75720043686F27
:10313E006F736520796F757220636F6E74726F6C2A
:10314E006C65720031206D6F62696C652070686FFE
:10315E006E6500322072656D6F746520636F6E74DC
:10316E00726F6C00596F757220617265206E6F7789
:10317E00206F6E00596F7520617265206E6F77201B
:10318E006F6E206D6F62696C65206D6F64650043B4
:10319E00686F6F736520616E206F72646572206652
:1031AE00726F6D20746865206D656E7500466F7266
:1031BE0020646F6F72206F70656E696E672070721B
:1031CE00657373203000466F7220646F6F722063D8
:1031DE006C6F73696E672070726573732031004671
:1031EE006F72206C69676874206F6E2070726573E1
:1031FE0073203200466F72206C69676874206F66A8
:10320E0066207072657373203300466F722061758D
:10321E00746F6D61746963206C6967687420707275
:10322E00657373203400466F722066616E206F6E78
:10323E00207072657373203500466F722066616E62
:10324E00206F6666207072657373203600466F724B
:10325E00206175746F6D617469632066616E207094
:10326E0072657373203700546F2072657365742016
:10327E007468652073797374656D207072657373ED
:10328E00203800546F207475726E206F666620743D
:10329E0068652073797374656D2070726573732021
:1032AE003900646F6F72206F70656E00646F6F729D
:1032BE0020636C6F736500646F6F7220636C6F7345
:1032CE006564004C6564206F6E004C6564206F660B
:1032DE0066004175746F206C65640046616E206FE8
:1032EE006E0046616E206F66660054656D70657285
:1032FE006174757265203D20004175746F206661A2
:10330E006E200070726F6772616D207265736574E6
:10331E0000537769746368696E67206F6666205321
:10332E00797374656D00537769746368696E67208D
:10333E006F666600557365206D616E75616C006316
:10334E006F6E74726F6C2C20427965210055736517
:10335E00206D616E75616C20636F6E74726F6C00A0
:10336E005265736574207468652070726F67726140
:10337E006D20746F2075736520736D617274206893
:10338E006F6D6520616761696E210042796520422B
:10339E0079650057726F6E6720636861726163743E
:1033AE0065720072656D6F7465206D6F64650041A6
:1033BE0075746F2066616E0057726F6E672043687A
:1033CE00617261637465720057726F6E672070610F
:1033DE007373776F726400496E636F727265637494
:1033EE00207061737300596F7520686176652032A5
:1033FE0000596F7520686176652032206D6F726599
:10340E0020617474656D70747300596F75206861F6
:10341E007665203100596F75206861766520312000
:10342E006D6F726520617474656D707400596F757F
:10343E002068617665206E6F00596F752068617621
:10344E0065206E6F20617474656D707473206C6589
:10345E0066740052657365742073797374656D00BC
:0A346E00476F6F64206C75636B00FC
:00000001FF
